:1003CF00454C425720544543484E4F4C4F475920B8
:1003DF005341005445535420414E44204D45415301
:1003EF005552454D454E542000494E495449414CB4
:1003FF0049534154494F4E0052454144494E4720BD
:10040F00444154412E2E2E0057494E442020202087
:10041F00206D2F73202020202020200054454D5088
:10042F002000430048522000250044502000505225
:10043F00455320006D626172004944454E54494650
:10044F0049434154494F4E2E2E2E2020004E4D45EC
:10045F0041202050726F746F636F6C20204D2020ED
:10046F00004D4E4541202050726F746F636F6C20AA
:10047F0020522020004E4D4541202050726F746F46
:10048F00636F6C20204E2020004E4D4541202050A0
:10049F00726F746F636F6C20204F2020004E4D459C
:1004AF0041202050726F746F636F6C20203F2020AB
:0404BF00000ADF0050
:1006FA00017400070C202020202020200175000111
:0B070A000800010900010A00010B00BB
:10065900EF24BE601414601514601614601714603A
:1006690018240570187E0A80187E0B80147E0C8071
:10067900107E0D800C7E0E80087E0F8004EF24D042
:03068900FEAF06BB
:01068C00224B
:1005DA00EF04FDE4FFF57574132DF8E6FE642A6056
:1005EA000EE57570048E758003EE62750D80E874F1
:1005FA00142DF8E6FF120659EFC454F0FC74152DB9
:10060A00F8E6FF120659EF2CB575037F01227F0029
:01061A0022BD
:10075C0075A890759850E4F587F5C975CBFF75CAE7
:05076C008875C834226D
:050003007FFA12000865
:10000800E4FEEEC39F5012758C87758AFFD28CC2AE
:090018008D308DFDC28C0E80E9D3
:0100210022BC
:0D072F00D293ED54F0FFE590540F4FF5907C
:0A073C00C2937F0A120008D2932234
:0706DD007F011206E47F809B
:1006E400AD07C29212072FEDC454F0FFE590540FEA
:0606F4004FF59002073CE7
:10074600AD07D29212072FEDC454F0FFE590540F77
:060756004FF59002073C84
:10061B001206DD7BFF7A0379CF1206967FC0120696
:10062B00E47BFF7A0379E21206967F941206E47B51
:10063B00FF7A0379F81206967FD41206E47BFF7AD1
:0E064B000479071206967FFA120008020008D2
:10054F001206DD7BFF7A0479171206967F93120647
:10055F008D7FC01206E47BFF7A04792B1206967FFB
:10056F00CA12068D7FCB1206E47BFF7A0479311213
:10057F0006967F941206E47BFF7A0479331206966F
:10058F007F9C1206E47BFF7A0479371206967F9ED2
:10059F001206E47BFF7A0479391206967FA61206BB
:1005AF008D7FA71206E47BFF7A0479311206967FBE
:1005BF00D41206E47BFF7A04793D1206967FDF1290
:0B05CF0006E47BFF7A047943020696E5
:09068D001206E47BFF7A0479C136
:100696008B798A7A897BAB79AA7AA97B120716604D
:1006A60013057BE57B7002057A14F9120716FF1213
:0506B600074680E2226E
:1006BB00D293C2927F331206E47F321206E47F2874
:1006CB001206E47F0C1206E47F061206E47F010299
:0206DB0006E433
:03002300020026B2
:10002600C0E0C0F0C083C082C0D075D000C000C0A0
:0D00360001C002C003C004C005C006C00721
:10004300E50960030201CC2098030201C585997379
:10005300C298E57364246005E574B4011DE508C323
:1000630094004016E508D3945F500F757401741320
:100073002508F8A67305080201C5C29C750800751A
:1000830009017FD41206E47BFF7A047948120696AD
:1000930012000375080075080074132508F8E66458
:1000A30024707A74172508F8E6B4571674182508CF
:1000B300F8E6B4560DAF081205DABF0105430A018D
:1000C300805B74172508F8E6B4541674182508F8ED
:1000D300E6B4410DAF081205DABF0105430A0280F9
:1000E3003C74172508F8E6B4481674182508F8E692
:1000F300B4550DAF081205DABF0105430A04801D8C
:1001030074172508F8E6B44D1474182508F8E6B4F6
:10011300420BAF081205DABF0103430A080508E5DD
:1001230008D3945A500302009C750800757400E5C7
:100133000A24FD601F24F8603724FC604F240E70EE
:10014300677FD41206E47BFF7A04795C1206967506
:100153000B1C80117FD41206E47BFF7A04797012A2
:100163000696750B2F12000312054F1200038052DF
:100173007FD41206E47BFF7A047984120696120078
:100183000312054F120003750B4580367FD4120608
:10019300E47BFF7A04799812069612000312054F46
:1001A300120003750B5F801A7FD41206E47BFF7A7B
:1001B3000479AC12069612000312061B1200037593
:1001C3000900D29CC2990203B42098030203B285AA
:1001D3009973C298E57364246005E574B4011DE561
:1001E30008C394004016E508D3950B500F757401AE
:1001F30074132508F8A67305080203B2C29C750898
:1002030000E50B24FBFFE508D39F40030203AA7418
:10021300132508F8E6642460030203A57417250870
:10022300F8E66457704974182508F8E66456703F79
:10023300AF081205DAEF640170357F851206E474A6
:10024300222508F8E6F50C74232508F8E6F50D7465
:10025300242508F8E6F50E74252508F8E6F50F754C
:1002630010007B007A00790C1206967F8E80207432
:10027300172508F8E66454703E74182508F8E664F8
:10028300417034AF081205DAEF6401702A7FC5129A
:1002930006E4741A2508F8E6F50C741B2508F8E63D
:1002A300F50D741C2508F8E6F50E741D2508F8E60F
:1002B300F50F741E02033B74172508F8E6644860C3
:1002C3000302034674182508F8E664557075AF08F1
:1002D3001205DAEF6401706B7F971206E4741A2536
:1002E30008F8E6F50C741B2508F8E6F50D741C25D3
:1002F30008F8E6F50E741D2508F8E6F50F741E25BB
:1003030008F8E6F5107511007B007A00790C1206E7
:10031300967FA11206E474212508F8E6F50C7422F1
:100323002508F8E6F50D74232508F8E6F50E742480
:100333002508F8E6F50F74252508F8E6F51075117C
:1003430000805674172508F8E6644D705574182517
:1003530008F8E66442704BAF081205DAEF640170E7
:10036300417FD91206E4741C2508F8E6F50C741DC8
:100373002508F8E6F50D741E2508F8E6F50E741F3A
:100383002508F8E6F50F74202508F8E6F510742122
:100393002508F8E6F5117512007B007A00790C1236
:1003A30006960508020204750800757400D29CC203
:0103B30099B0
:1003B400D007D006D005D004D003D002D001D0009D
:0B03C400D0D0D082D083D0F0D0E03247
:0B0771001206BB12061B12075C80FE84
:030000000204C334
:0C04C300787FE4F6D8FD75817B02050A05
:10071600BB010689828A83E0225002E722BBFE02E1
:09072600E32289828A83E4932214
:1004CF00020771E493A3F8E493A34003F68001F2CB
:1004DF0008DFF48029E493A3F85407240CC8C3332E
:1004EF00C4540F4420C8834004F456800146F6DFFD
:1004FF00E4800B01020408102040809006FAE47E8D
:10050F00019360BCA3FF543F30E509541FFEE493F1
:10051F00A360010ECF54C025E060A840B8E493A3B8
:10052F00FAE493A3F8E493A3C8C582C8CAC583CAE3
:10053F00F0A3C8C582C8CAC583CADFE9DEE780BE9B
:0107150000E3
:00000001FF
